{
  "contractName": "User",
  "abi": [
    {
      "inputs": [],
      "payable": false,
      "stateMutability": "nonpayable",
      "type": "constructor"
    },
    {
      "anonymous": false,
      "inputs": [
        {
          "indexed": false,
          "internalType": "uint256",
          "name": "id",
          "type": "uint256"
        },
        {
          "indexed": false,
          "internalType": "uint256",
          "name": "price",
          "type": "uint256"
        },
        {
          "indexed": false,
          "internalType": "uint256",
          "name": "energyAmount",
          "type": "uint256"
        },
        {
          "indexed": false,
          "internalType": "string",
          "name": "energyType",
          "type": "string"
        },
        {
          "indexed": false,
          "internalType": "enum User.State",
          "name": "state",
          "type": "uint8"
        },
        {
          "indexed": false,
          "internalType": "address payable",
          "name": "seller",
          "type": "address"
        },
        {
          "indexed": false,
          "internalType": "bool",
          "name": "purchased",
          "type": "bool"
        }
      ],
      "name": "EnergyCreated",
      "type": "event"
    },
    {
      "anonymous": false,
      "inputs": [
        {
          "indexed": false,
          "internalType": "address",
          "name": "",
          "type": "address"
        }
      ],
      "name": "LogAddressBuyer",
      "type": "event"
    },
    {
      "anonymous": false,
      "inputs": [
        {
          "indexed": false,
          "internalType": "address",
          "name": "",
          "type": "address"
        }
      ],
      "name": "LogAddressSeller",
      "type": "event"
    },
    {
      "anonymous": false,
      "inputs": [
        {
          "indexed": false,
          "internalType": "address",
          "name": "",
          "type": "address"
        }
      ],
      "name": "LogAddressUser",
      "type": "event"
    },
    {
      "anonymous": false,
      "inputs": [
        {
          "indexed": false,
          "internalType": "uint256",
          "name": "id",
          "type": "uint256"
        }
      ],
      "name": "LogForSale",
      "type": "event"
    },
    {
      "anonymous": false,
      "inputs": [
        {
          "indexed": false,
          "internalType": "uint256",
          "name": "id",
          "type": "uint256"
        }
      ],
      "name": "LogSold",
      "type": "event"
    },
    {
      "anonymous": false,
      "inputs": [
        {
          "indexed": false,
          "internalType": "uint256",
          "name": "userId",
          "type": "uint256"
        }
      ],
      "name": "LogUser",
      "type": "event"
    },
    {
      "constant": true,
      "inputs": [
        {
          "internalType": "uint256",
          "name": "",
          "type": "uint256"
        }
      ],
      "name": "energies",
      "outputs": [
        {
          "internalType": "uint256",
          "name": "id",
          "type": "uint256"
        },
        {
          "internalType": "uint256",
          "name": "price",
          "type": "uint256"
        },
        {
          "internalType": "uint256",
          "name": "energyAmount",
          "type": "uint256"
        },
        {
          "internalType": "string",
          "name": "energyType",
          "type": "string"
        },
        {
          "internalType": "enum User.State",
          "name": "state",
          "type": "uint8"
        },
        {
          "internalType": "address payable",
          "name": "seller",
          "type": "address"
        },
        {
          "internalType": "bool",
          "name": "purchased",
          "type": "bool"
        }
      ],
      "payable": false,
      "stateMutability": "view",
      "type": "function"
    },
    {
      "constant": true,
      "inputs": [],
      "name": "energyCount",
      "outputs": [
        {
          "internalType": "uint256",
          "name": "",
          "type": "uint256"
        }
      ],
      "payable": false,
      "stateMutability": "view",
      "type": "function"
    },
    {
      "constant": true,
      "inputs": [
        {
          "internalType": "address",
          "name": "",
          "type": "address"
        }
      ],
      "name": "userId",
      "outputs": [
        {
          "internalType": "uint256",
          "name": "",
          "type": "uint256"
        }
      ],
      "payable": false,
      "stateMutability": "view",
      "type": "function"
    },
    {
      "constant": true,
      "inputs": [
        {
          "internalType": "uint256",
          "name": "",
          "type": "uint256"
        }
      ],
      "name": "users",
      "outputs": [
        {
          "internalType": "uint256",
          "name": "userId",
          "type": "uint256"
        },
        {
          "internalType": "string",
          "name": "name",
          "type": "string"
        },
        {
          "internalType": "string",
          "name": "energyType",
          "type": "string"
        },
        {
          "internalType": "string",
          "name": "status",
          "type": "string"
        },
        {
          "internalType": "bool",
          "name": "signedUp",
          "type": "bool"
        }
      ],
      "payable": false,
      "stateMutability": "view",
      "type": "function"
    },
    {
      "constant": false,
      "inputs": [
        {
          "internalType": "string",
          "name": "_name",
          "type": "string"
        },
        {
          "internalType": "string",
          "name": "_energyType",
          "type": "string"
        },
        {
          "internalType": "string",
          "name": "_status",
          "type": "string"
        },
        {
          "internalType": "bool",
          "name": "_isReg",
          "type": "bool"
        }
      ],
      "name": "addUser",
      "outputs": [
        {
          "internalType": "bool",
          "name": "",
          "type": "bool"
        }
      ],
      "payable": false,
      "stateMutability": "nonpayable",
      "type": "function"
    },
    {
      "constant": true,
      "inputs": [
        {
          "internalType": "address",
          "name": "_userAddress",
          "type": "address"
        }
      ],
      "name": "fetchUserId",
      "outputs": [
        {
          "internalType": "uint256",
          "name": "id",
          "type": "uint256"
        }
      ],
      "payable": false,
      "stateMutability": "view",
      "type": "function"
    },
    {
      "constant": true,
      "inputs": [],
      "name": "getContractStatus",
      "outputs": [
        {
          "internalType": "bool",
          "name": "",
          "type": "bool"
        }
      ],
      "payable": false,
      "stateMutability": "view",
      "type": "function"
    },
    {
      "constant": true,
      "inputs": [],
      "name": "getUserCount",
      "outputs": [
        {
          "internalType": "uint256",
          "name": "id",
          "type": "uint256"
        }
      ],
      "payable": false,
      "stateMutability": "view",
      "type": "function"
    },
    {
      "constant": false,
      "inputs": [
        {
          "internalType": "uint256",
          "name": "_energyAmount",
          "type": "uint256"
        },
        {
          "internalType": "uint256",
          "name": "_price",
          "type": "uint256"
        },
        {
          "internalType": "string",
          "name": "_energyType",
          "type": "string"
        }
      ],
      "name": "createEnergy",
      "outputs": [
        {
          "internalType": "bool",
          "name": "",
          "type": "bool"
        }
      ],
      "payable": false,
      "stateMutability": "nonpayable",
      "type": "function"
    },
    {
      "constant": false,
      "inputs": [
        {
          "internalType": "uint256",
          "name": "_id",
          "type": "uint256"
        }
      ],
      "name": "buyEnergy",
      "outputs": [],
      "payable": true,
      "stateMutability": "payable",
      "type": "function"
    },
    {
      "constant": true,
      "inputs": [],
      "name": "getEnergyCount",
      "outputs": [
        {
          "internalType": "uint256",
          "name": "id",
          "type": "uint256"
        }
      ],
      "payable": false,
      "stateMutability": "view",
      "type": "function"
    },
    {
      "constant": true,
      "inputs": [
        {
          "internalType": "uint256",
          "name": "_id",
          "type": "uint256"
        }
      ],
      "name": "fetchUser",
      "outputs": [
        {
          "internalType": "string",
          "name": "name",
          "type": "string"
        },
        {
          "internalType": "uint256",
          "name": "id",
          "type": "uint256"
        },
        {
          "internalType": "string",
          "name": "energyType",
          "type": "string"
        },
        {
          "internalType": "string",
          "name": "status",
          "type": "string"
        },
        {
          "internalType": "bool",
          "name": "signed",
          "type": "bool"
        }
      ],
      "payable": false,
      "stateMutability": "view",
      "type": "function"
    },
    {
      "constant": true,
      "inputs": [
        {
          "internalType": "uint256",
          "name": "_id",
          "type": "uint256"
        }
      ],
      "name": "fetchEnergy",
      "outputs": [
        {
          "internalType": "uint256",
          "name": "id",
          "type": "uint256"
        },
        {
          "internalType": "uint256",
          "name": "energyAmount",
          "type": "uint256"
        },
        {
          "internalType": "uint256",
          "name": "price",
          "type": "uint256"
        },
        {
          "internalType": "string",
          "name": "energyType",
          "type": "string"
        },
        {
          "internalType": "uint256",
          "name": "state",
          "type": "uint256"
        },
        {
          "internalType": "address",
          "name": "seller",
          "type": "address"
        },
        {
          "internalType": "bool",
          "name": "purchased",
          "type": "bool"
        }
      ],
      "payable": false,
      "stateMutability": "view",
      "type": "function"
    }
  ],
  "bytecode": "0x60806040526001600760006101000a81548160ff0219169083151502179055506000600760016101000a81548160ff02191690831515021790555034801561004657600080fd5b5033600460006101000a81548173ffffffffffffffffffffffffffffffffffffffff021916908373ffffffffffffffffffffffffffffffffffffffff1602179055506000600581905550611fed8061009f6000396000f3fe6080604052600436106100c25760003560e01c806383fee1b11161007f578063bc8a251f11610059578063bc8a251f146107da578063c032846b14610808578063dfbf990014610837578063f1389f7c146109d5576100c2565b806383fee1b11461071f5780639a5fb1701461074a578063b5cb15f7146107af576100c2565b806332bfe85d146100c7578063365b98b2146100f2578063376fe1021461029057806352ddbda1146102f557806361588a4e1461050f578063770f2f3a1461062b575b600080fd5b3480156100d357600080fd5b506100dc610ae3565b6040518082815260200191505060405180910390f35b3480156100fe57600080fd5b5061012b6004803603602081101561011557600080fd5b8101908080359060200190929190505050610ae9565b6040518086815260200180602001806020018060200185151515158152602001848103845288818151815260200191508051906020019080838360005b83811015610183578082015181840152602081019050610168565b50505050905090810190601f1680156101b05780820380516001836020036101000a031916815260200191505b50848103835287818151815260200191508051906020019080838360005b838110156101e95780820151818401526020810190506101ce565b50505050905090810190601f1680156102165780820380516001836020036101000a031916815260200191505b50848103825286818151815260200191508051906020019080838360005b8381101561024f578082015181840152602081019050610234565b50505050905090810190601f16801561027c5780820380516001836020036101000a031916815260200191505b509850505050505050505060405180910390f35b34801561029c57600080fd5b506102df600480360360208110156102b357600080fd5b81019080803573ffffffffffffffffffffffffffffffffffffffff169060200190929190505050610cf4565b6040518082815260200191505060405180910390f35b34801561030157600080fd5b506104f56004803603608081101561031857600080fd5b810190808035906020019064010000000081111561033557600080fd5b82018360208201111561034757600080fd5b8035906020019184600183028401116401000000008311171561036957600080fd5b91908080601f016020809104026020016040519081016040528093929190818152602001838380828437600081840152601f19601f820116905080830192505050505050509192919290803590602001906401000000008111156103cc57600080fd5b8201836020820111156103de57600080fd5b8035906020019184600183028401116401000000008311171561040057600080fd5b91908080601f016020809104026020016040519081016040528093929190818152602001838380828437600081840152601f19601f8201169050808301925050505050505091929192908035906020019064010000000081111561046357600080fd5b82018360208201111561047557600080fd5b8035906020019184600183028401116401000000008311171561049757600080fd5b91908080601f016020809104026020016040519081016040528093929190818152602001838380828437600081840152601f19601f820116905080830192505050505050509192919290803515159060200190929190505050610d0c565b604051808215151515815260200191505060405180910390f35b34801561051b57600080fd5b506105486004803603602081101561053257600080fd5b8101908080359060200190929190505050611008565b604051808881526020018781526020018681526020018060200185600181111561056e57fe5b60ff1681526020018473ffffffffffffffffffffffffffffffffffffffff1673ffffffffffffffffffffffffffffffffffffffff16815260200183151515158152602001828103825286818151815260200191508051906020019080838360005b838110156105ea5780820151818401526020810190506105cf565b50505050905090810190601f1680156106175780820380516001836020036101000a031916815260200191505b509850505050505050505060405180910390f35b34801561063757600080fd5b506107056004803603606081101561064e57600080fd5b8101908080359060200190929190803590602001909291908035906020019064010000000081111561067f57600080fd5b82018360208201111561069157600080fd5b803590602001918460018302840111640100000000831117156106b357600080fd5b91908080601f016020809104026020016040519081016040528093929190818152602001838380828437600081840152601f19601f82011690508083019250505050505050919291929050505061111c565b604051808215151515815260200191505060405180910390f35b34801561072b57600080fd5b506107346113f9565b6040518082815260200191505060405180910390f35b34801561075657600080fd5b506107996004803603602081101561076d57600080fd5b81019080803573ffffffffffffffffffffffffffffffffffffffff169060200190929190505050611403565b6040518082815260200191505060405180910390f35b3480156107bb57600080fd5b506107c46114ee565b6040518082815260200191505060405180910390f35b610806600480360360208110156107f057600080fd5b81019080803590602001909291905050506114f8565b005b34801561081457600080fd5b5061081d611a4d565b604051808215151515815260200191505060405180910390f35b34801561084357600080fd5b506108706004803603602081101561085a57600080fd5b8101908080359060200190929190505050611a64565b6040518080602001868152602001806020018060200185151515158152602001848103845289818151815260200191508051906020019080838360005b838110156108c85780820151818401526020810190506108ad565b50505050905090810190601f1680156108f55780820380516001836020036101000a031916815260200191505b50848103835287818151815260200191508051906020019080838360005b8381101561092e578082015181840152602081019050610913565b50505050905090810190601f16801561095b5780820380516001836020036101000a031916815260200191505b50848103825286818151815260200191508051906020019080838360005b83811015610994578082015181840152602081019050610979565b50505050905090810190601f1680156109c15780820380516001836020036101000a031916815260200191505b509850505050505050505060405180910390f35b3480156109e157600080fd5b50610a0e600480360360208110156109f857600080fd5b8101908080359060200190929190505050611cd2565b60405180888152602001878152602001868152602001806020018581526020018473ffffffffffffffffffffffffffffffffffffffff1673ffffffffffffffffffffffffffffffffffffffff16815260200183151515158152602001828103825286818151815260200191508051906020019080838360005b83811015610aa2578082015181840152602081019050610a87565b50505050905090810190601f168015610acf5780820380516001836020036101000a031916815260200191505b509850505050505050505060405180910390f35b60065481565b6000602052806000526040600020600091509050806000015490806001018054600181600116156101000203166002900480601f016020809104026020016040519081016040528092919081815260200182805460018160011615610100020316600290048015610b9b5780601f10610b7057610100808354040283529160200191610b9b565b820191906000526020600020905b815481529060010190602001808311610b7e57829003601f168201915b505050505090806002018054600181600116156101000203166002900480601f016020809104026020016040519081016040528092919081815260200182805460018160011615610100020316600290048015610c395780601f10610c0e57610100808354040283529160200191610c39565b820191906000526020600020905b815481529060010190602001808311610c1c57829003601f168201915b505050505090806003018054600181600116156101000203166002900480601f016020809104026020016040519081016040528092919081815260200182805460018160011615610100020316600290048015610cd75780601f10610cac57610100808354040283529160200191610cd7565b820191906000526020600020905b815481529060010190602001808311610cba57829003601f168201915b5050505050908060040160009054906101000a900460ff16905085565b60016020528060005260406000206000915090505481565b600060011515600760009054906101000a900460ff16151514610d2e57600080fd5b600260003373ffffffffffffffffffffffffffffffffffffffff1673ffffffffffffffffffffffffffffffffffffffff16815260200190815260200160002060009054906101000a900460ff1615610dee576040517f08c379a000000000000000000000000000000000000000000000000000000000815260040180806020018281038252601c8152602001807f73656e64657220697320616c726561647920726567697374657265640000000081525060200191505060405180910390fd5b7fc8e6c395bf0fb3f62df63933605a49595c563077cc9dabf49a820cb389cc5a406005546040518082815260200191505060405180910390a17f9c67f90bf05aa9c771ad86490217923b02e09e9a769e52a9e78e2779ea09b0c733604051808273ffffffffffffffffffffffffffffffffffffffff1673ffffffffffffffffffffffffffffffffffffffff16815260200191505060405180910390a16040518060a0016040528060055481526020018681526020018581526020018481526020018315158152506000806005548152602001908152602001600020600082015181600001556020820151816001019080519060200190610eef929190611e8a565b506040820151816002019080519060200190610f0c929190611e8a565b506060820151816003019080519060200190610f29929190611e8a565b5060808201518160040160006101000a81548160ff0219169083151502179055509050506001600260003373ffffffffffffffffffffffffffffffffffffffff1673ffffffffffffffffffffffffffffffffffffffff16815260200190815260200160002060006101000a81548160ff021916908315150217905550600554600160003373ffffffffffffffffffffffffffffffffffffffff1673ffffffffffffffffffffffffffffffffffffffff16815260200190815260200160002081905550600160056000828254019250508190555060019050949350505050565b6003602052806000526040600020600091509050806000015490806001015490806002015490806003018054600181600116156101000203166002900480601f0160208091040260200160405190810160405280929190818152602001828054600181600116156101000203166002900480156110c65780601f1061109b576101008083540402835291602001916110c6565b820191906000526020600020905b8154815290600101906020018083116110a957829003601f168201915b5050505050908060040160009054906101000a900460ff16908060040160019054906101000a900473ffffffffffffffffffffffffffffffffffffffff16908060040160159054906101000a900460ff16905087565b600060011515600760009054906101000a900460ff1615151461113e57600080fd5b7f4627c48065af2a9648cbecdd4b9da340c00e501243cd49a8a71c30c987e8b7616006546040518082815260200191505060405180910390a16000841161118457600080fd5b6000831161119157600080fd5b6006600081548092919060010191905055506040518060e001604052806006548152602001858152602001848152602001838152602001600060018111156111d557fe5b81526020013373ffffffffffffffffffffffffffffffffffffffff16815260200160001515815250600360006006548152602001908152602001600020600082015181600001556020820151816001015560408201518160020155606082015181600301908051906020019061124c929190611e8a565b5060808201518160040160006101000a81548160ff0219169083600181111561127157fe5b021790555060a08201518160040160016101000a81548173ffffffffffffffffffffffffffffffffffffffff021916908373ffffffffffffffffffffffffffffffffffffffff16021790555060c08201518160040160156101000a81548160ff0219169083151502179055509050507f13ea14fa81f9f2daa859693fcdf06338b95e6a171569cede8e98af48ca1edf416006548585856000336000604051808881526020018781526020018681526020018060200185600181111561133257fe5b60ff1681526020018473ffffffffffffffffffffffffffffffffffffffff1673ffffffffffffffffffffffffffffffffffffffff16815260200183151515158152602001828103825286818151815260200191508051906020019080838360005b838110156113ae578082015181840152602081019050611393565b50505050905090810190601f1680156113db5780820380516001836020036101000a031916815260200191505b509850505050505050505060405180910390a1600190509392505050565b6000600654905090565b6000600260008373ffffffffffffffffffffffffffffffffffffffff1673ffffffffffffffffffffffffffffffffffffffff16815260200190815260200160002060009054906101000a900460ff166114a7576040517f08c379a0000000000000000000000000000000000000000000000000000000008152600401808060200182810382526029815260200180611f906029913960400191505060405180910390fd5b600160008373ffffffffffffffffffffffffffffffffffffffff1673ffffffffffffffffffffffffffffffffffffffff168152602001908152602001600020549050919050565b6000600554905090565b806000600181111561150657fe5b6003600083815260200190815260200160002060040160009054906101000a900460ff16600181111561153557fe5b1461153f57600080fd5b60036000838152602001908152602001600020600101548034101561156357600080fd5b8260011515600760009054906101000a900460ff1615151461158457600080fd5b61158c611f0a565b600360008681526020019081526020016000206040518060e0016040529081600082015481526020016001820154815260200160028201548152602001600382018054600181600116156101000203166002900480601f0160208091040260200160405190810160405280929190818152602001828054600181600116156101000203166002900480156116615780601f1061163657610100808354040283529160200191611661565b820191906000526020600020905b81548152906001019060200180831161164457829003601f168201915b505050505081526020016004820160009054906101000a900460ff16600181111561168857fe5b600181111561169357fe5b81526020016004820160019054906101000a900473ffffffffffffffffffffffffffffffffffffffff1673ffffffffffffffffffffffffffffffffffffffff1673ffffffffffffffffffffffffffffffffffffffff1681526020016004820160159054906101000a900460ff161515151581525050905060016003600087815260200190815260200160002060040160006101000a81548160ff0219169083600181111561173d57fe5b021790555060008160a0015190503373ffffffffffffffffffffffffffffffffffffffff168173ffffffffffffffffffffffffffffffffffffffff16141561178457600080fd5b338260a0019073ffffffffffffffffffffffffffffffffffffffff16908173ffffffffffffffffffffffffffffffffffffffff168152505060018260c00190151590811515815250508160036000888152602001908152602001600020600082015181600001556020820151816001015560408201518160020155606082015181600301908051906020019061181b929190611e8a565b5060808201518160040160006101000a81548160ff0219169083600181111561184057fe5b021790555060a08201518160040160016101000a81548173ffffffffffffffffffffffffffffffffffffffff021916908373ffffffffffffffffffffffffffffffffffffffff16021790555060c08201518160040160156101000a81548160ff0219169083151502179055509050508073ffffffffffffffffffffffffffffffffffffffff166108fc349081150290604051600060405180830381858888f193505050501580156118f5573d6000803e3d6000fd5b507fe64ca8c671e48636f85f3008c1dd538e36bfa74fb6f2790b56b72fcc33b879ef866040518082815260200191505060405180910390a17fb976aeccefd470f33e140ba228f02888030a51b987c21807791c1770a3bb58a533604051808273ffffffffffffffffffffffffffffffffffffffff1673ffffffffffffffffffffffffffffffffffffffff16815260200191505060405180910390a17fc1a3dd7d3372fb5581befbfec830c5f181944d2d4a6a270427340305903f0f0b6003600088815260200190815260200160002060040160019054906101000a900473ffffffffffffffffffffffffffffffffffffffff16604051808273ffffffffffffffffffffffffffffffffffffffff1673ffffffffffffffffffffffffffffffffffffffff16815260200191505060405180910390a150506000600360008381526020019081526020016000206001015490505050505050565b6000600760009054906101000a900460ff16905090565b6060600060608060008060008781526020019081526020016000206001018054600181600116156101000203166002900480601f016020809104026020016040519081016040528092919081815260200182805460018160011615610100020316600290048015611b165780601f10611aeb57610100808354040283529160200191611b16565b820191906000526020600020905b815481529060010190602001808311611af957829003601f168201915b505050505094506000808781526020019081526020016000206000015493506000808781526020019081526020016000206002018054600181600116156101000203166002900480601f016020809104026020016040519081016040528092919081815260200182805460018160011615610100020316600290048015611bde5780601f10611bb357610100808354040283529160200191611bde565b820191906000526020600020905b815481529060010190602001808311611bc157829003601f168201915b505050505092506000808781526020019081526020016000206003018054600181600116156101000203166002900480601f016020809104026020016040519081016040528092919081815260200182805460018160011615610100020316600290048015611c8e5780601f10611c6357610100808354040283529160200191611c8e565b820191906000526020600020905b815481529060010190602001808311611c7157829003601f168201915b5050505050915060008087815260200190815260200160002060040160009054906101000a900460ff16905084848484849450945094509450945091939590929450565b600080600060606000806000600360008981526020019081526020016000206000015496506003600089815260200190815260200160002060020154955060036000898152602001908152602001600020600101549450600360008981526020019081526020016000206003018054600181600116156101000203166002900480601f016020809104026020016040519081016040528092919081815260200182805460018160011615610100020316600290048015611dd35780601f10611da857610100808354040283529160200191611dd3565b820191906000526020600020905b815481529060010190602001808311611db657829003601f168201915b505050505093506003600089815260200190815260200160002060040160009054906101000a900460ff166001811115611e0957fe5b92506003600089815260200190815260200160002060040160019054906101000a900473ffffffffffffffffffffffffffffffffffffffff1691506003600089815260200190815260200160002060040160159054906101000a900460ff169050868686868686869650965096509650965096509650919395979092949650565b828054600181600116156101000203166002900490600052602060002090601f016020900481019282601f10611ecb57805160ff1916838001178555611ef9565b82800160010185558215611ef9579182015b82811115611ef8578251825591602001919060010190611edd565b5b509050611f069190611f6a565b5090565b6040518060e001604052806000815260200160008152602001600081526020016060815260200160006001811115611f3e57fe5b8152602001600073ffffffffffffffffffffffffffffffffffffffff1681526020016000151581525090565b611f8c91905b80821115611f88576000816000905550600101611f70565b5090565b9056fe5468652075736572204964206f662074686973206163636f756e7420646573206e6f74206578697374a265627a7a723158206eb9cc247a9e049277766515d4104e370d3f5d288853cfd13e797d56c004ad7c64736f6c63430005100032",
  "source": "pragma solidity >=0.5.0 <0.7.0;\n\n\ncontract User{\n\n    //like a hash table or associative array. Key =  id, value = energy struct\n    mapping (uint => Users) public users;\n    mapping(address => uint) public userId;\n    mapping(address => bool) _isRegistered;\n    mapping(uint => Energy) public energies;\n\n    address payable owner;\n    uint userCount;\n    uint public energyCount;\n    bool userIsActive = true;\n    bool isReg = false;\n\n    // uint testAmount = 100;\n\n    enum State{\n        ForSale,\n        Sold\n    }\n\n    struct Users {\n        uint userId;\n        string name;\n        string energyType;\n        string status;\n        bool signedUp;\n  \n    }\n\n    struct Energy {\n        uint id;\n        uint price;\n        uint energyAmount;\n        string energyType;\n        State state;\n        address payable seller;\n        bool purchased;\n    }\n\n    event EnergyCreated(\n        uint id,\n        uint price,\n        uint energyAmount,\n        string energyType,\n        State state,\n        address payable seller,\n        bool purchased\n    );\n\n    constructor() public {\n        owner = msg.sender;\n        userCount = 0;\n    }\n\n\n    event LogAddressUser(address);\n    event LogUser(uint userId);\n    event LogAddressSeller(address);\n    event LogAddressBuyer(address);\n    event LogForSale(uint id);\n    event LogSold(uint id);\n\n    modifier userContractIsActive(){require(userIsActive == true); _;}\n    modifier onlyOwner(){require(owner == msg.sender); _;}\n    // modifier enoughEnergy(uint _energyAmount){require(testAmount > _energyAmount); _;}\n    modifier contractIsActive() { require(userIsActive == true); _;}\n    modifier paidEnough(uint _price) { require(msg.value >= _price); _;}\n    modifier checkValue(uint _id) {\n    _;\n    uint _price = energies[_id].price;}\n\n    \n\n    modifier forSale(uint _id) { require(energies[_id].state == State.ForSale); _;}\n    modifier sold(uint _id) { require(energies[_id].state == State.Sold); _;}\n\n\n    \n    \n    function addUser(string memory _name, string memory _energyType, string memory _status, bool _isReg) contractIsActive() public returns (bool){\n        require(!_isRegistered[msg.sender], \"sender is already registered\");\n        emit LogUser(userCount);\n        emit LogAddressUser(msg.sender);\n        users[userCount] = Users({name: _name, userId: userCount, energyType: _energyType, status: _status, signedUp: _isReg});\n        _isRegistered[msg.sender] = true;\n        userId[msg.sender] = userCount;\n        userCount += 1;\n        return true;\n    }\n\n    function fetchUserId(address _userAddress) public view returns(uint id){\n        require(_isRegistered[_userAddress], 'The user Id of this account des not exist');\n        return userId[_userAddress];\n    }\n\n    function getContractStatus() public view returns (bool){\n        return userIsActive;\n    }\n\n    function getUserCount() public view returns (uint id){\n        return userCount;\n    }\n\n    function createEnergy(uint _energyAmount, uint _price, string memory _energyType) contractIsActive() public returns(bool) {\n        emit LogForSale(energyCount);\n\n\n        //Require an energy Type\n        require(_energyAmount > 0);\n\n        //Require a valid _price\n        require(_price > 0);\n        \n        energyCount ++;\n        //Create the energy\n        energies[energyCount] = Energy( energyCount, _energyAmount,  _price, _energyType, State.ForSale,  msg.sender, false);\n        emit EnergyCreated( energyCount, _energyAmount,  _price, _energyType, State.ForSale,  msg.sender, false);\n\n        //Make sure parameters are correct\n        return true;\n\n    }\n\n\n    function buyEnergy(uint _id) public payable forSale(_id) paidEnough(energies[_id].price) checkValue(_id) contractIsActive(){\n\n        Energy memory _energy = energies[_id];\n\n        energies[_id].state = State.Sold;\n\n        address payable _seller = _energy.seller;\n\n        require(_seller != msg.sender);\n\n        _energy.seller = msg.sender;\n        _energy.purchased = true;\n        energies[_id] = _energy;\n        address(_seller).transfer(msg.value);\n\n        emit LogSold(_id);\n        emit LogAddressBuyer(msg.sender);\n        emit LogAddressSeller(energies[_id].seller);\n\n\n    }\n\n    function getEnergyCount() public view returns (uint id){\n        return energyCount;\n    }\n\n    function fetchUser(uint _id) public view returns(string memory name, uint id, string memory energyType, string memory status, bool signed){\n        name = users[_id].name;\n        id = users[_id].userId;\n        energyType = users[_id].energyType;\n        status = users[_id].status;\n        signed = users[_id].signedUp;\n\n        return(name, id, energyType, status, signed);\n    }\n\n    // function getTestAmount() public view returns (uint id){\n    //     return testAmount;\n\n    // }\n\n    function fetchEnergy(uint _id) public view returns (uint id, uint energyAmount, uint price, string memory energyType, uint state, address seller, bool purchased){\n        \n        id = energies[_id].id;\n        \n        energyAmount = energies[_id].energyAmount;\n        price = energies[_id].price;\n        energyType = energies[_id].energyType;\n        state = uint(energies[_id].state);\n        seller = energies[_id].seller;\n        purchased = energies[_id].purchased;\n        return (id, energyAmount,  price, energyType, state, seller, purchased);\n\n    }\n}\n",
  "sourcePath": "/Users/macuser/IdeaProjects/Marketplace/market/contracts/User.sol",
  "compiler": {
    "name": "solc",
    "version": "0.5.16+commit.9c3226ce.Emscripten.clang"
  },
  "schemaVersion": "3.4.2",
  "updatedAt": "2021-08-11T07:36:40.228Z",
  "networkType": "ethereum",
  "devdoc": {
    "methods": {}
  },
  "userdoc": {
    "methods": {}
  }
}